:020000040800F2
:100000006410002079150008E1200008F1200008A4
:10001000F920000801210008092100080000000063
:100020000000000000000000000000001121000896
:1000300021210008000000003121000841210008B2
:10004000E9150008E9150008E9150008E915000898
:10005000E9150008E9150008E9150008E915000888
:10006000E9150008E9150008E915000889210008CC
:10007000E9150008E9150008E9150008E915000868
:10008000E9150008E9150008E9150008E915000858
:10009000E9150008E9150008E9150008E915000848
:1000A000E9150008E9150008E9150008E915000838
:1000B000E9150008E9150008E9150008E915000828
:1000C000E9150008E9150008E9150008E915000818
:1000D000E9150008E9150008E9150008E915000808
:1000E000E9150008E915000851210008E915000884
:1000F000E9150008E9150008E9150008E9150008E8
:10010000E9150008E9150008E9150008E9150008D7
:10011000E9150008E9150008491F0008E91500085D
:10012000E9150008E9150008E9150008E9150008B7
:10013000E9150008E9150008E9150008E9150008A7
:10014000E9150008E9150008E91500088D1F0008E9
:10015000E9150008E9150008E9150008E915000887
:10016000E9150008E9150008E9150008E915000877
:10017000E9150008E9150008E9150008E915000867
:10018000E9150008E915000890B484B000AF0346F3
:100190000A46FB711346BB710023FB60BB7903F079
:1001A00003039B000F2202FA03F3FB601649BB799D
:1001B0009B08DBB21846144ABB799B08DBB20233BA
:1001C00052F82320FB68DB431A40831C41F82320AC
:1001D0000D48BB799B08DBB21C460B4ABB799B08D8
:1001E000DBB2023352F82320F979BB7903F0030321
:1001F0009B0001FA03F31A43A31C40F8232000BF1D
:100200001037BD4690BC70470038014080B485B0BF
:1002100000AF78600023FB607B68DB684FF0FF3243
:100220005A607B68DB684FF0FF325A61FB7B43F01A
:100230008003FB737B7B43F008037B737B68DB6885
:10024000FA689A6100BF1437BD465DF8047B7047B9
:1002500080B586B000AF78600023FB7400237B611B
:100260000023FB60032002F049FA7B68DB681B690E
:10027000FB607B6901337B617B69184A934201D93A
:10028000002326E0FB68C3F3C073DBB2002BE9D088
:1002900000237B61FB6843F00103FB607B68DB6844
:1002A000FA681A617B68DB681B69FB607B69013354
:1002B0007B617B69094A934206D8FB68C3F300035C
:1002C000DBB2012BEED000E000BF032002F016FAF3
:1002D000FB7C18461837BD4680BD00BF400D0300AB
:1002E00080B489B000AFF860B96011461A460B4679
:1002F000FB711346BB800023FB76FB68DB78002B89
:1003000022D100237B610023FB61BB880333002BD8
:1003100000DA03339B107B61FB79FA6832339B0070
:1003200013449B683B610023FB6109E0BB681A68CA
:100330003B691A60FB690133FB61BB680433BB6036
:10034000FA697B699A42F1D3FB7E18462437BD4691
:100350005DF8047B704700BF80B489B000AFF860DF
:10036000B9601346FB800023FB61FB880333002B3D
:1003700000DA03339B10BB61FB68D3F8D0307B619C
:100380000023FB6109E07B691A68BB681A60FB699E
:100390000133FB61BB680433BB60FA69BB699A42F5
:1003A000F1D3BB6818462437BD465DF8047B70471F
:1003B00080B487B000AF78600B46FB7000233B61D0
:1003C0000023FB737B680022DA707B6801229A703D
:1003D0007B6840229A80FB78012B13D14FF0A04319
:1003E0003B617B680122DA727B6808221A707B68A5
:1003F00004225A707B684FF4A072DA807B68022274
:100400001A7211E0FB78002B0ED1454B3B617B68E3
:100410000022DA727B680C221A707B6806225A70FE
:100420007B684FF4A062DA803A697B68DA603B69E6
:1004300003F500631A467B681A6100237B611CE0A8
:100440007B695A013B69134403F5106319467A68C6
:100450007B6904339B00134499607B695A013B69B3
:10046000134403F5306319467A687B6914339B00A3
:10047000134459607B6901337B617B685B781A4662
:100480007B699A42DCD83B6903F580631A467B6836
:100490005A613B6903F588631A467B68C3F8CC2030
:1004A00000237B610FE07B695A013B69134403F52C
:1004B000A06319467A687B6922339B0013449960D4
:1004C0007B6901337B617B681B781A467B699A42A2
:1004D000E9D800237B610FE07B691A033B69134471
:1004E00003F5805319467A687B6932339B001344C5
:1004F00099607B6901337B617B681B781A467B6955
:100500009A42E9D83B6903F560631A467B68C3F8F1
:100510000C21FB7B18461C37BD465DF8047B7047F9
:100520000000044080B588B000AF78600023FB77FE
:100530000023BB6100237B610023FB607B681B7A87
:10054000012B4FD17B68DB689B6B7B61BB7D6FF3BD
:100550000003BB757B685B7A002B03D0BB7D43F047
:100560001003BB757B68DB687A699A630023BB6103
:100570007B68DB68DB68BB613B7E6FF386133B7691
:10058000BB7E6FF38613BB763B7E43F010033B7656
:100590003B7E6FF3C3033B763B7E6FF3C7133B7623
:1005A000BB7E6FF34103BB76BB7E6FF3C303BB76A9
:1005B0007B68DB68BA69DA607868FFF749FE7B68B8
:1005C000DB78012B40F082803B7B052262F3440301
:1005D0003B733B7B43F020033B737B68DB68FA682B
:1005E0009A6073E07B68DB68DB68BB613B7E43F04D
:1005F00040033B767B68DB68BA69DA607868FFF7AE
:1006000027FE00237B61BB7D43F00103BB757B6844
:100610001B7A032B03D1BB7D43F00203BB75BB7D6B
:1006200043F00403BB75BB7D43F00803BB75BB7D82
:1006300043F02003BB757B685B7A002B03D0BB7D46
:1006400043F01003BB757B68DB687A699A631420FA
:1006500002F078F87B68DB68DB68BB617B681B7A3B
:10066000032B03D1BB7E43F00103BB767B68DB68C1
:10067000BA69DA607B681B7A032B27D17B68DB6859
:100680001B6B3B61FB7C012262F38303FB74BB7C2D
:100690006FF3C713BB74FB7C43F01003FB74BB7C8C
:1006A0002D2262F30603BB747B68DB683A691A6328
:1006B000C82002F047F8BB7C43F08003BB747B6822
:1006C000DB683A691A63C82002F03CF87B68DB7883
:1006D000012B10D17B68DB689B68FB603B7B0522AC
:1006E00062F344033B733B7B43F020033B737B6823
:1006F000DB68FA689A60FB7F18462037BD4680BDEC
:1007000080B485B000AF78600023FB730023BB602A
:100710003B7A43F001033B727B68DB687A68D268FE
:100720009168BA680A439A60FB7B18461437BD4645
:100730005DF8047B704700BF80B485B000AF78607F
:100740000023FB730023BB603B7A43F001033B7241
:100750007B68DB687A68D2689168BA68D2430A40DD
:100760009A60FB7B18461437BD465DF8047B7047E2
:1007700080B586B000AF786039600023FB74002339
:100780007B610023FB60FB6843F02003FB603B6858
:10079000DBB203F01F03DAB2FB6862F38A13FB607B
:1007A0007B68DB68FA681A617B68DB681B69FB6041
:1007B0007B6901337B617B69094A934206D8FB68F8
:1007C000C3F34013DBB2012BEED000E000BF0320E7
:1007D00001F094FFFB7C18461837BD4680BD00BF72
:1007E000400D030080B586B000AF78600023FB7435
:1007F00000237B610023FB60FB6843F01003FB6078
:100800007B68DB68FA681A617B68DB681B69FB60E0
:100810007B6901337B617B69094A934206D8FB6897
:10082000C3F30013DBB2012BEED000E000BF0320C6
:1008300001F064FFFB7C18461837BD4680BD00BF41
:10084000400D030080B584B000AF78600B46FB70AC
:100850000023FB737B68DB68DB68BB60FB7A6FF3AC
:100860004513FB72FB7A6FF38613FB72FB78012B47
:1008700004D1FB7A43F02003FB7206E0FB78002BE7
:1008800003D1FB7A43F04003FB727B68DB68BA68F4
:10089000DA60322001F056FFFB7B18461037BD4668
:1008A00080BD00BF80B483B000AF78607B68DB6838
:1008B0005B6903F0010318460C37BD465DF8047B05
:1008C000704700BF80B582B000AF78607868FFF7EE
:1008D000E9FF0346012B14BF01230023DBB21846B6
:1008E0000837BD4680BD00BF80B485B000AF7860DA
:1008F0000023FB607B68DB685B69FB607B68DB680F
:100900009B69FA681340FB60FB6818461437BD46C4
:100910005DF8047B704700BF80B485B000AF78609D
:100920000B46FB707B681B691B68FB60FB7803F060
:100930000303DAB23B7B62F301033B737B681B6901
:10094000FA681A6000BF1437BD465DF8047B704733
:1009500080B58CB000AF7860002387F82B3000237F
:100960007B6200233B620023FB610023BB61002309
:100970007B617B68D3F80C3100221A607B681B69AD
:100980001B683B6297F821306FF3C40387F821306E
:100990007B681B693A6A1A607B68DB7A012B33D16A
:1009A00003217868FFF7B8FF7B68DB6880225A6212
:1009B0004023FB838023BB837B68DB68FA699A62F0
:1009C000BA8BFB8B13449BB23B8380237B837B6876
:1009D000DB68BA69C3F804213A8B7B8B13449BB262
:1009E0003B8300237B837B68DB68BA69C3F80821FB
:1009F0003A8B7B8B13449BB23B8300237B837B68C6
:100A0000DB68BA69C3F80C2110217868FFF7B0FEE3
:100A10007868FFF7E7FE7B681B6900221A617B6834
:100A20001B6900225A617B681B694FF0FF329A6193
:100A30007B681B690022DA610023FB623AE07A6876
:100A4000FB6A04339B0013449B681B687B6297F826
:100A5000273023F07F03DBB2002B0ED000237B6214
:100A600097F8273043F0400387F8273097F827306E
:100A700043F0080387F8273001E000237B627A689F
:100A8000FB6A04339B0013449B687A6A1A607A6895
:100A9000FB6A04339B0013449B6800221A617A6846
:100AA000FB6A04339B0013449B68FF229A60FB6A35
:100AB0000133FB627B685B781A46FB6A9A42BED8B8
:100AC0000023FB6235E07A68FB6A14339B00134411
:100AD0005B681B68FB60FB7B23F07F03DBB2002BB2
:100AE0000AD00023FB60FB7B43F04003FB73FB7BDE
:100AF00043F00803FB7301E00023FB607A68FB6AA4
:100B000014339B0013445B68FA681A607A68FB6AC6
:100B100014339B0013445B6800221A617A68FB6AF5
:100B200014339B0013445B68FF229A60FB6A013315
:100B3000FB627B685B781A46FB6A9A42C3D8002343
:100B40007B617B7D43F001037B757B681B697A6861
:100B5000126911697A69D24311407A690A431A61AC
:100B60007B68DB78012B1BD100233B613B7C43F08E
:100B700001033B743B7C43F002033B743B8A4022FD
:100B800062F38A033B82BB7C43F00103BB747B8A24
:100B9000402262F349037B827B681B693A691A63CE
:100BA000786800F007F897F82B3018463037BD46C4
:100BB00080BD00BF80B584B000AF78600023FB73B8
:100BC0000023BB607B68DB6800229A617B68DB687E
:100BD0004FF0FF325A617868FFF718FB7B68DB78CB
:100BE000002B03D13B7A43F010033B727B7A43F036
:100BF00008037B727B7A43F010037B727B7A43F0AD
:100C000020037B72BB7A43F00403BB72BB7A43F0D0
:100C10000803BB723B7A43F008033B72BB7A43F094
:100C20001003BB72BB7A43F02003BB727B68DB68A6
:100C30007A68D2689169BA68D2431140BA680A43A7
:100C40009A61FB7B18461037BD4680BD80B485B0E5
:100C500000AF78600023FB737B681B699B68BB60F7
:100C60003B7AC3F34103DBB2022B09D0032B04D040
:100C7000012B02D00323FB7305E00223FB7302E088
:100C80000123FB7300BFFB7B18461437BD465DF89C
:100C9000047B704780B487B000AF78600023FB7599
:100CA0000023BB607B681B699B683B617B689B6919
:100CB0001B68FB603B7CC3F34103DBB2022B04D017
:100CC000BB896FF30A03BB8105E0BB89032262F392
:100CD0000A03BB8100BF7B689B69FA681A607B7A54
:100CE00043F001037B727B681B697A681269516863
:100CF000BA68D2431140BA680A435A60FB7D18466D
:100D00001C37BD465DF8047B704700BF80B487B0D8
:100D100000AF786039600023FB740023FB60002380
:100D2000BB603B685B78012B0FD13B681B787A680E
:100D300004339B0013449B687B613B681B781A4615
:100D4000012393409BB23B810EE03B681B787A689D
:100D500014339B0013445B687B613B681B781A4625
:100D6000012393409BB27B817B691B68FB607B7B8B
:100D700023F07F03DBB2002B27D13B689B689BB23B
:100D8000C3F30A039AB2BB8962F30A03BB813B68CF
:100D9000DB7803F00303DAB2BB7B62F38303BB733C
:100DA0003B68DB88DBB203F00F03DAB2FB8962F346
:100DB0008913FB81FB7B43F01003FB737B7B43F0C8
:100DC00080037B73FA687B691A607B681B697A68A9
:100DD0001269D169BA680A43DA61FB7C18461C378C
:100DE000BD465DF8047B704780B487B000AF786083
:100DF00039600023FB740023FB600023BB603B6869
:100E00005B78012B0FD13B681B787A6804339B0019
:100E100013449B687B613B681B781A46012393400F
:100E20009BB23B810EE03B681B787A6814339B00D1
:100E300013445B687B613B681B781A46012393402F
:100E40009BB27B817B7B6FF3C7137B73FA687B69F3
:100E50001A607B681B697A681269D169BA68D243E3
:100E60000A40DA61FB7C18461C37BD465DF8047BFE
:100E7000704700BF80B588B000AF7860396000234C
:100E8000FB770023BB6100237B6100233B613B6850
:100E90005B78012B40F0AB803B681B787A680433A9
:100EA0009B0013449B681B687B613B681B787A68D6
:100EB00004339B0013449B681B693B613B685B697F
:100EC000002B09D13B696FF312033B617B8A01223E
:100ED00062F3CC037B8222E03B685B69C3F31202BE
:100EE0003B6962F312033B613B685A693B689B684C
:100EF00013445A1E3B689B68B2FBF3F39BB2C3F3E7
:100F000009039AB27B8A62F3CC037B823B68DB786D
:100F1000012B04D1FB7C012262F34613FB743B6876
:100F20001B787A6804339B0013449B683A691A6102
:100F30007B68DB78012B0AD13B681B787A68043325
:100F40009B0013449B683A6812695A6115E03B683C
:100F5000DB78012B11D03B685B69002B0DD03B681F
:100F60001B781A4601239340BB617B681B697A6832
:100F70001269516BBA690A435A633B68DB78012BEB
:100F800014D17B681B699B68FB60FB68C3F30D236E
:100F90009BB203F00103002B04D1FB7D43F020033F
:100FA000FB7503E0FB7D43F01003FB75FB7D43F015
:100FB0000403FB75FB7D43F08003FB753B681B78E6
:100FC0007A6804339B0013449B687A691A603B6813
:100FD000DB78012B40F089803B68D9683B681A7840
:100FE0003B685B699BB27868FFF77AF97DE03B6804
:100FF0001B787A6814339B0013445B681B687B6121
:101000003B681B787A6814339B0013445B681B6948
:101010003B613B685B69002B0DD13B689B68C3F368
:1010200012023B6962F312033B617B8A012262F385
:10103000CC037B8220E03B685A693B689B68134481
:101040005A1E3B689B68B2FBF3F39BB2C3F30903E0
:101050009AB27B8A62F3CC037B827B8AC3F3C90397
:101060009BB21A463B689B6803FB02F3C3F3120270
:101070003B6962F312033B613B681B787A68143367
:101080009B0013445B683A691A617B68DB78012B2B
:1010900009D13B681B787A6814339B0013445B6862
:1010A0003A6812695A613B68DB78012B0CD13B68C6
:1010B0005B79002B04D0FB7D43F02003FB7503E03C
:1010C000FB7D43F01003FB75FB7D43F00403FB75D0
:1010D000FB7D43F08003FB753B681B787A68143313
:1010E0009B0013445B687A691A60FB7F18462037BF
:1010F000BD4680BD80B489B000AF78603960002300
:10110000FB770023BB6100233B610023BB603B688E
:101110005B78012B70D17B689B697B617B691B6865
:101120003B617B691B69BB603B685B69002B09D134
:101130003B7A6FF306033B72BB7A012262F3C4036E
:10114000BB7223E03B685A693B689B689A420ED9A0
:101150003B689A683B685A613B689B68DBB203F066
:101160007F03DAB23B7A62F306033B7209E03B6825
:101170005B69DBB203F07F03DAB23B7A62F306030A
:101180003B72BB7A012262F3C403BB72BA687B690B
:101190001A617B68DB78012B09D13B681B787A6880
:1011A00004339B0013449B683A6812695A61FB7CC4
:1011B00043F00403FB74FB7C43F08003FB743A6947
:1011C0007B691A607B68DB78002B76D13B685B69B2
:1011D000002B72D03B681B781A46012393401A46B5
:1011E000BB691343BB617B681B697A681269516BE9
:1011F000BA690A435A6360E03B681B787A68143323
:101200009B0013445B681B683B613B681B787A68F2
:1012100014339B0013445B681B69BB603B685B69CC
:10122000002B0FD13B689B68DBB203F07F03DAB27F
:101230003B7A62F306033B72BB7A012262F3C4037A
:10124000BB7212E03B689A683B685A613B689B68D6
:10125000DBB203F07F03DAB23B7A62F306033B7240
:10126000BB7A012262F3C403BB723B681B787A68C5
:1012700014339B0013445B68BA681A617B68DB789F
:10128000012B09D13B681B787A6814339B00134407
:101290005B683A6812695A61FB7C43F00403FB7493
:1012A000FB7C43F08003FB743B681B787A68143343
:1012B0009B0013445B683A691A60FB7F1846243729
:1012C000BD465DF8047B704780B487B000AF78609E
:1012D00039600023FB750023FB603B685B78012BC2
:1012E0001CD13B681B787A6804339B0013449B68CD
:1012F0003B613B691B68FB60FB7B23F07F03DBB238
:10130000002B03D0FB7B43F04003FB73BB7B43F01C
:101310002003BB73FA683B691A6011E03B681B78D5
:101320007A6814339B0013445B683B613B691B681C
:10133000FB60BB7B43F02003BB73FA683B691A6018
:10134000FB7D18461C37BD465DF8047B704700BF27
:1013500080B487B000AF786039600023FB7400234D
:10136000FB603B685B78012B08D13B681B787A688F
:1013700004339B0013449B687B6107E03B681B7848
:101380007A6814339B0013445B687B617B691B683C
:10139000FB60BB7B6FF34513BB733B68DB78032BB0
:1013A00003D03B68DB78022B03D1FB7B43F01003B7
:1013B000FB73FA687B691A60FB7C18461C37BD46D4
:1013C0005DF8047B704700BF80B485B000AF7860E3
:1013D0007B681B699B69FB607B681B69DB69FA683A
:1013E0001340FB60FB681B0C18461437BD465DF8C4
:1013F000047B704780B485B000AF78600B46FB700B
:10140000FB787A6814339B0013445B689B68FB602D
:101410007B681B695B69FA681340FB60FB681846D0
:101420001437BD465DF8047B704700BF80B485B0BB
:1014300000AF78607B681B699B69FB607B681B69F8
:10144000DB69FA681340FB60FB689BB218461437EF
:10145000BD465DF8047B704780B487B000AF78600C
:1014600000233B61FB7C43F0C003FB74BB7C012287
:1014700062F3C403BB743B7C182262F306033B7423
:101480007B685B6D3A691A617B68DB78012B16D14A
:101490000023FB607B685B6D7A6802F5B9625A6174
:1014A0007B685B6D1B68FB60FB7B43F08003FB7319
:1014B0004FF08023FB607B685B6DFA681A6000BFA9
:1014C0001C37BD465DF8047B704700BF80B485B013
:1014D00000AF78607B689B7A002B1BD07B681B6910
:1014E0009B68FB603B7B03F00103DBB2002B11D058
:1014F0007B6803F586731B68BB603B7A6FF341031F
:101500003B723B7A6FF300033B727B68D3F80C317C
:10151000BA681A6000BF1437BD465DF8047B704797
:1015200080B400AF00BFBD465DF8047B704700BFCC
:1015300080B483B000AF0346FB7100BF0C37BD46DB
:101540005DF8047B704700BF80B400AF00BFBD46AC
:101550005DF8047B704700BF80B400AF00BFBD469C
:101560005DF8047B704700BF80B400AF00BFBD468C
:101570005DF8047B704700BF80B582B000AF144BAC
:101580007B60144B3B6007E03B681A1D3A607A6849
:10159000111D796012681A603B680F4A9342F3D3B9
:1015A0000E480F494FF000028842B8BF40F8042BA4
:1015B000FADBDFF83000016841F47001016000F0EF
:1015C00077FF00F009FC00BF0837BD4680BD00BFB3
:1015D0008643000800000020400100204001002058
:1015E0006808002088ED00E080B400AFFEE700BF8F
:1015F00080B584B000AF0346FB71FB79104A52F806
:1016000023300121184600F0CBFCFB790D4A32F85B
:101610001330BB6001233B730023BB730123FB73B7
:1016200002237B73FB79084A52F8233007F1080242
:101630001146184600F064FE00BF1037BD4680BD5D
:10164000E8420008E04200081C00002080B483B09B
:1016500000AF0346FB71FB79064A52F82330FA7952
:10166000054931F812201A8300BF0C37BD465DF8DA
:10167000047B70471C000020E042000880B483B067
:1016800000AF0346FB71FB79064A52F82330FA7922
:10169000054931F812205A8300BF0C37BD465DF86A
:1016A000047B70471C000020E042000880B588B031
:1016B00000AF03460A46FB711346BB7101230121AB
:1016C000184600F06DFC01214FF4804000F0C8FC8A
:1016D00000233B770023FB770123BB61FB79184A8A
:1016E00052F8233007F118021146184600F008FEA0
:1016F000BB79012B1FD10023002211461846FEF7AB
:1017000043FD01233B6100233B7508237B750123C7
:10171000BB7507F11003184602F0EEF906233B7380
:101720000F237B730F23BB730123FB7307F10C03A0
:10173000184602F077FA00BF2037BD4680BD00BFD3
:101740002C00002080B582B000AF78600B46FB70A3
:1017500003230A228121786802F048FB03230A222E
:101760000121786802F042FB0A23054A01217868CA
:1017700002F0CCFB002318460837BD4680BD00BFF1
:101780004C01002080B582B000AF78600B46FB7042
:101790008121786802F080FB0121786802F07CFBEF
:1017A000002318460837BD4680BD00BF80B584B011
:1017B00000AF786039600023FB810023BB603B6889
:1017C0001B7803F06003002B41D0202B78D13B68BD
:1017D0005B78023B092B33D801A252F823F000BFFB
:1017E00035180008171800084118000841180008AB
:1017F0004118000841180008411800084118000865
:1018000023180008091800083B685B88DBB21A46F9
:101810002E4B1A601AE001222C49786802F0A4FCD1
:1018200014E03B685B881B0A9BB2DBB21A46284B6C
:101830001A600BE001222649786802F095FC05E069
:101840003968786801F0A8FB02233AE038E03B6889
:101850005B780A2B27D00B2B2BD0062B30D13B6883
:101860005B881B0A9BB2222B08D13B68DB88542B78
:1018700028BF5423FB81174BBB600DE03B685B889E
:101880001B0A9BB2212B07D1134BBB603B68DB8843
:10189000092B28BF0923FB81FB891A46B9687868A0
:1018A00002F062FC0CE001220C49786802F05CFC5A
:1018B00006E03B685B88DBB21A46084B1A6000BF43
:1018C000002318461037BD4680BD00BF44010020EC
:1018D00048010020880000206E0000204001002008
:1018E00080B584B000AFF860B9601346FB80FB6838
:1018F00093F81231032B05D1FB88BA688121F8686F
:1019000002F046FB002318461037BD4680BD00BFDD
:1019100080B483B000AF03463960FB713B68292275
:101920001A80034B18460C37BD465DF8047B7047A0
:101930005C00002080B582B000AF78600B46FB7081
:101940008121786802F0D8FB002318460837BD468D
:1019500080BD00BF80B584B000AF78600B46FB70DF
:101960000023FB730DE097F90F3097F90F200C4916
:10197000895C0C4AD15497F90F30DBB20133DBB2EA
:10198000FB7397F90F300A2BEDDD0A23044A01217E
:10199000786802F0BBFA002318461037BD4680BDB8
:1019A0004C010020E801002080B584B000AFF86051
:1019B0007A603B600B46FB72F86800F02BFEF8681B
:1019C00000F01EF8FB683A68C3F8E025FB68BA69C6
:1019D000C3F8E425FB687A68C3F8E825FB7A194662
:1019E000F86802F081F9FB68D3F8E4351B68984782
:1019F000F86800F069FE00BF1037BD4680BD00BF2B
:101A000080B483B000AF7860002318460C37BD4621
:101A10005DF8047B704700BF80B584B000AF78608C
:101A200007F108031946786801F06CFA3B7A03F075
:101A30001F03012B0AD0022B0FD0002B14D107F16A
:101A400008031946786800F08DFE16E007F10803D8
:101A50001946786800F0D6FE0FE007F10803194632
:101A6000786800F003FF08E03B7A23F07F03DBB2E5
:101A70001946786802F0C8FA00BF002318461037EC
:101A8000BD4680BD80B584B000AF78600B46FB706A
:101A9000FB78002B44D17B6803F55C73FB607B68AB
:101AA00093F81131032B4ED1FB68DA69FB689B6810
:101AB0009A4220D9FB68DA69FB689B68D21AFB68F6
:101AC000DA617B68DB78012B06D1FB68DA68FB689A
:101AD0009B681A44FB68DA60FB68D968FB689A68FF
:101AE000FB68DB69934228BF13469BB21A467868AD
:101AF00002F06EFB27E07B68D3F8E0351B69002B12
:101B00000AD07B6893F81231032B05D17B68D3F898
:101B1000E0351B6978689847786802F06DFB12E041
:101B20007B68D3F8E0359B69002B0CD07B6893F879
:101B30001231032B07D17B68D3F8E0359B69FA7823
:101B4000114678689847002318461037BD4680BD77
:101B500080B584B000AF78600B46FB70FB78002B3B
:101B60005FD17B6803F58C73FB607B6893F8113160
:101B7000022B69D1FB68DA69FB689B689A421BD922
:101B8000FB68DA69FB689B68D21AFB68DA617B68DC
:101B9000DB78012B06D1FB68DA68FB689B681A4486
:101BA000FB68DA60FB68D968FB68DB699BB21A46A0
:101BB000786802F0F9FA47E0FB681B6AFA689268F5
:101BC000B3FBF2F102FB01F29B1A002B14D1FB686C
:101BD0001A6AFB689B689A420ED3FB681A6AFB6814
:101BE0005B6A9A4208D200220021786802F0DCFA8F
:101BF000FB6800225A6227E07B68D3F8E035DB6897
:101C0000002B0AD07B6893F81231032B05D17B6837
:101C1000D3F8E035DB6878689847786802F004FB11
:101C200012E07B68D3F8E0355B69002B0CD07B6851
:101C300093F81231032B07D17B68D3F8E0355B6949
:101C4000FA78114678689847002318461037BD4641
:101C500080BD00BF80B582B000AF78600023402215
:101C60000021786802F0C2F80023402280217868C1
:101C700002F0BCF87B68012283F812217B68D3F85C
:101C8000E4355B687A6892781046984700231846D6
:101C90000837BD4680BD00BF80B582B000AF786018
:101CA0007B68D3F8E4351B6998477B68032283F887
:101CB0001221002318460837BD4680BD80B582B08A
:101CC00000AF78607B68042283F812217B68D3F828
:101CD000E435DB689847002318460837BD4680BDC9
:101CE00080B582B000AF78607B68D3F8E035DB69FF
:101CF000002B05D07B68D3F8E035DB69786898471E
:101D0000002318460837BD4680BD00BF80B582B0AD
:101D100000AF78600B46FB707B68D3F8E0351B683A
:101D2000FA781146786898477B68D3F8E4359B6861
:101D30009847002318460837BD4680BD80B582B05D
:101D400000AF78600B46FB707B68D3F8E0355B68CA
:101D5000FA78114678689847002318460837BD4638
:101D600080BD00BF80B582B000AF78607B68D3F8DB
:101D7000E0351B6A78689847002318460837BD4647
:101D800080BD00BF80B582B000AF78607B68D3F8BB
:101D9000E0355B6A78689847002318460837BD46E7
:101DA00080BD00BF80B483B000AF0346FB7109491A
:101DB00097F907305B09FA7902F01F02012000FA57
:101DC00002F241F8232000BF0C37BD465DF8047BCA
:101DD000704700BF00E100E080B584B002AF00F0C2
:101DE00067FB0120FFF704FC0020FFF701FC022045
:101DF000FFF7FEFB0320FFF7FBFB00210020FFF7AE
:101E000055FC0121102000F00BF9474B42F2CF02A4
:101E10001A85454B40F2DB52DA6201220121424829
:101E200002F03AFA0121404802F016FA3F4B0093C3
:101E30003F4B404A01214048FFF7B6FD3620FFF7EF
:101E4000B1FF3E4B02221A700B223C493A48FFF781
:101E500047FD3B4B5B7AFF2B33D0394B5B7A03F06A
:101E60000203002B03D00120FFF7F0FB02E001206A
:101E7000FFF704FC324B5B7A03F00103002B03D025
:101E80000020FFF7E3FB02E00020FFF7F7FB2C4BFD
:101E90005B7A03F00403002B03D00220FFF7D6FB8C
:101EA00002E00220FFF7EAFB254B5B7A03F0080310
:101EB000002B03D00320FFF7C9FB02E00320FFF74C
:101EC000DDFB1F4B5B7A002B0BD10320FFF7D6FB0A
:101ED0000220FFF7D3FB0020FFF7D0FB0120FFF724
:101EE000CDFB174B1B7A012BB3D1154B00221A7275
:101EF000124B02221A70134B1A78104B5A7002239D
:101F00007B6007E00D4A7B681344FF221A707B68F0
:101F100001337B607B68092BF4D90A220749064804
:101F2000FFF7DEFC95E700BF001000400000002036
:101F3000300000200C01002018020020A801002021
:101F4000E80100209401002080B400AF0C4A0C4B43
:101F50001B8A9BB223F001039BB21382094B1B69BE
:101F600003F00103002B05D0074B1B780133DAB2D5
:101F7000054B1A7000BFBD465DF8047B704700BF7B
:101F800000100040000002409401002080B500AF26
:101F9000024801F081F800BF80BD00BF1802002098
:101FA00080B483B000AF78600B46FB70FB78002BE9
:101FB00006D00A49094B1A6B7B6813430B6306E092
:101FC0000649064B1A6B7B68DB4313400B6300BF6B
:101FD0000C37BD465DF8047B704700BF00380240F7
:101FE00080B483B000AF78600B46FB70FB78002BA9
:101FF00006D00A49094B5A6B7B6813434B6306E0D2
:102000000649064B5A6B7B68DB4313404B6300BFAA
:102010000C37BD465DF8047B704700BF00380240B6
:1020200080B483B000AF78600B46FB70FB78002B68
:1020300006D00A49094B1A6C7B6813430B6406E00F
:102040000649064B1A6C7B68DB4313400B6400BFE8
:102050000C37BD465DF8047B704700BF0038024076
:1020600080B483B000AF78600B46FB70FB78002B28
:1020700006D00A49094B5A6C7B6813434B6406E04F
:102080000649064B5A6C7B68DB4313404B6400BF28
:102090000C37BD465DF8047B704700BF0038024036
:1020A00080B483B000AF78600B46FB70FB78002BE8
:1020B00006D00A49094B1A6A7B6813430B6206E093
:1020C0000649064B1A6A7B68DB4313400B6200BF6C
:1020D0000C37BD465DF8047B704700BF00380240F6
:1020E00080B400AF00BFBD465DF8047B704700BF01
:1020F00080B400AFFEE700BF80B400AFFEE700BFD2
:1021000080B400AFFEE700BF80B400AFFEE700BFC1
:1021100080B400AF00BFBD465DF8047B704700BFD0
:1021200080B400AF00BFBD465DF8047B704700BFC0
:1021300080B400AF00BFBD465DF8047B704700BFB0
:1021400080B400AF00BFBD465DF8047B704700BFA0
:1021500080B500AF0A4B9B7A002B0AD0094A094B85
:102160001B6823F00603136000F0A2F90448FFF790
:10217000ADF94FF4802001F031FD00BF80BD00BFFC
:102180001802002010ED00E080B400AF00BFBD4693
:102190005DF8047B704700BF80B483B000AF034696
:1021A0003960FB713B6812221A80034B18460C37CA
:1021B000BD465DF8047B70472801002080B483B0E1
:1021C00000AF03463960FB713B6804221A80034B61
:1021D00018460C37BD465DF8047B70473C01002073
:1021E00080B582B000AF03463960FB71FB79002BEC
:1021F00005D13A680749084800F0F2FE04E03A6861
:102200000449064800F0ECFE024B18460837BD466C
:1022100080BD00BF280800201043000824430008A8
:1022200080B582B000AF03463960FB713A6804495B
:10223000044800F0D5FE024B18460837BD4680BD65
:10224000280800203843000880B582B000AF03465C
:102250003960FB71FB79002B05D13A6807490848C2
:1022600000F0BEFE04E03A680449064800F0B8FEFB
:10227000024B18460837BD4680BD00BF2808002025
:102280004C4300085C43000880B582B000AF0346B1
:102290003960FB71FB79002B05D13A680749084882
:1022A00000F09EFE04E03A680449054800F098FEFC
:1022B000024B18460837BD4680BD00BF28080020E5
:1022C0006C43000880B582B000AF03463960FB71F3
:1022D000FB79002B05D13A680749084800F080FED9
:1022E00004E03A680449054800F07AFE024B1846BB
:1022F0000837BD4680BD00BF28080020784300088D
:1023000080B487B000AF7860396000237B61002320
:102310003B610023FB6000237B6176E001227B6947
:1023200002FA03F33B613B681A683B691340FB60A8
:10233000FA683B699A4265D17B681A687B695B00E1
:10234000032101FA03F3DB431A407B681A607B68C0
:102350001A683B681B7919467B695B0001FA03F335
:102360001A437B681A603B681B79012B03D03B68DA
:102370001B79022B2ED17B689A687B695B00032155
:1023800001FA03F3DB431A407B689A607B689A6822
:102390003B685B7919467B695B0001FA03F31A43DA
:1023A0007B689A607B685A687B699BB219460123F7
:1023B0008B40DB431A407B685A607B685B683A68F5
:1023C000927911467A6992B201FA02F292B21A43F4
:1023D0007B685A607B68DA687B699BB25B0003218B
:1023E00001FA03F3DB431A407B68DA607B68DA6842
:1023F0003B68DB7919467B695B0001FA03F31A43FA
:102400007B68DA607B6901337B617B690F2B85D93F
:1024100000BF1C37BD465DF8047B704780B485B0B3
:1024200000AF78600B467B8013467B700023FB6017
:102430000023BB607A787B8803F007039B0002FAD5
:1024400003F3FB607B88DB089BB218467B88DB08C4
:102450009BB21A467B68083253F822207B8803F02F
:1024600007039B000F2101FA03F3DB4302EA030198
:102470007B6800F1080243F822107B88DB089BB2DE
:102480001A467B68083253F82220FB681343BB606E
:102490007B88DB089BB21A467B680832B96843F830
:1024A000221000BF1437BD465DF8047B704700BFA3
:1024B00080B500AF164A164BD3F8883043F470034A
:1024C000C2F88830134A134B1B6843F001031360B2
:1024D000104B00229A600F4A0E4B1B6823F0847346
:1024E00023F4803313600B4B0B4A5A60094A094BA3
:1024F0001B6823F480231360064B0022DA6000F08F
:102500000DF8034B4FF000629A6000BF80BD00BF22
:1025100000ED00E0003802401030002480B483B0A9
:1025200000AF00237B6000233B60364A354B1B68BD
:1025300043F480331360334B1B6803F400333B6078
:102540007B6801337B603B68002B03D17B68B3F56C
:10255000A06FF0D12B4B1B6803F40033002B02D08B
:1025600001233B6001E000233B603B68012B42D12B
:10257000244A244B1B6C43F080531364224A224BA1
:102580001B6843F4804313601E4A1E4B9B68936094
:102590001C4A1C4B9B6843F400439360194A194B37
:1025A0009B6843F4A0539360164B184A5A60154A2F
:1025B000144B1B6843F08073136000BF114B1B6802
:1025C00003F00073002BF9D0114B40F205621A6042
:1025D0000C4A0C4B9B6823F003039360094A094B98
:1025E0009B6843F00203936000BF064B9B6803F0B7
:1025F0000C03082BF9D100BF0C37BD465DF8047BF6
:10260000704700BF00380240007000400854400787
:10261000003C024080B584B000AF78600121012009
:10262000FFF7BEFC4FF4D853BB6003237B73022338
:102630003B730023BB730023FB7307F108031946A8
:102640002048FFF75DFE0A2208211E48FFF7E6FE3C
:102650000A2209211B48FFF7E1FE0A220B21194833
:10266000FFF7DCFE0A220C211648FFF7D7FE4FF4D5
:102670008063BB600123BB730123FB7303237B7364
:1026800007F1080319460F48FFF73AFE0A220A210C
:102690000C48FFF7C3FE01214FF48040FFF7E0FC38
:1026A00001218020FFF79CFC01214FF08050FFF7B3
:1026B000F7FC00210020FEF7F9FF00BF1037BD46F0
:1026C00080BD00BF0000024080B584B000AF7860DC
:1026D0004FF4C06001F092FA43233B7301237B73F4
:1026E0000323BB730123FB7307F10C03184601F0AE
:1026F00099FA00BF1037BD4680BD00BF80B485B0D9
:1027000000AF78600023FB607A6813461B019B1AB8
:10271000DB001A460A4BA3FB0213D21A52081344D9
:102720009B08BB60FB680133FB60FA68BB689A4298
:1027300000D8F7E700BF1437BD465DF8047B70474B
:102740002549922480B582B000AF78607B684FF451
:102750007A7202FB03F31846FFF7D0FF00BF083779
:10276000BD4680BD80B584B000AF7860396000237D
:10277000FB733B685B78092B39D801A252F823F030
:10278000D1270008E5270008EF270008DB2700080D
:10279000EF270008B3270008A9270008EF27000843
:1027A000C7270008BD2700083968786800F036F9A7
:1027B00022E03968786800F005FA1DE03968786829
:1027C00000F03EFA18E03968786800F0B3FA13E0D8
:1027D0003968786800F0DEFA0EE03968786800F051
:1027E00001FB09E03968786800F064FB04E03968AF
:1027F000786800F0D1FB00BFFB7B18461037BD4660
:1028000080BD00BF80B584B000AF78603960002320
:10281000FB737B6893F81231032B1BD13B689B88B9
:10282000DBB2012B11D87B68D3F8E0359B6839689F
:10283000786898473B68DB88002B10D1FB7B002B26
:102840000DD1786801F0D8FC09E03968786800F0AB
:10285000A3FB04E03968786800F09EFB00E000BF4D
:10286000FB7B18461037BD4680BD00BF80B584B0E5
:1028700000AF786039600023FB733B689B88BB73B3
:102880003B685B78012B39D0032B02D0002B6CD036
:10289000BDE07B6893F81231022B02D0032B0CD0E1
:1028A00025E0BB7B002B27D0BB7B802B24D0BB7BC0
:1028B0001946786801F0A8FB1EE03B685B88002B96
:1028C0000AD1BB7B002B07D0BB7B802B04D0BB7B0A
:1028D0001946786801F098FB7B68D3F8E0359B686F
:1028E000396878689847786801F086FC05E03968AF
:1028F000786800F051FB00E000BF88E07B6893F847
:102900001231022B02D0032B0CD025E0BB7B002B15
:1029100027D0BB7B802B24D0BB7B1946786801F085
:1029200073FB1EE03B685B88002B1CD1BB7B002B3C
:102930000ED0BB7B802B0BD0BB7B1946786801F097
:102940009FFB7B68D3F8E0359B68396878689847C7
:10295000786801F051FC06E03968786800F01CFBEB
:1029600002E000BF53E000BF51E07B6893F81231F2
:10297000022B02D0032B0CD042E0BB7B002B44D0B7
:10298000BB7B802B41D0BB7B1946786801F03CFBB8
:102990003BE097F90E30002B15DABB7B03F07F028A
:1029A000796813469B001344DB000B4403F58D73D9
:1029B0001B78002B03D0184B01221A601AE0164B2B
:1029C00000221A6016E097F90E30002B12DBBA7B5A
:1029D000796813469B001344DB000B4403F2723307
:1029E0001B78002B03D00C4B01221A6002E00A4B2B
:1029F00000221A6002220849786801F0B5FB05E060
:102A00003968786800F0C8FA00E000BF00BFFB7BBF
:102A100018461037BD4680BD9801002080B584B0AF
:102A200000AF786039603B685B881B0A9BB2013B52
:102A3000062B00F2A98001A252F823F0592A0008BF
:102A4000892A0008B12A0008892B0008892B000870
:102A5000752B00087F2B00087B68D3F8E8351B68CE
:102A60007A68927807F10A0110469847F8603B6847
:102A7000DB88402B05D07B6893F81231012B40F0A6
:102A8000888008237B8184E07B68D3F8E0359B6AEB
:102A90007A68927807F10A0110469847F860FB6857
:102AA000013302221A707B68FA68C3F8EC2571E0E2
:102AB0003B685B88DBB2052B56D801A252F823F0A5
:102AC000D92A0008F12A0008092B0008212B000848
:102AD000392B0008512B00087B68D3F8E8355B6878
:102AE0007A68927807F10A0110469847F86040E04A
:102AF0007B68D3F8E8359B687A68927807F10A0119
:102B000010469847F86034E07B68D3F8E835DB6816
:102B10007A68927807F10A0110469847F86028E031
:102B20007B68D3F8E8351B697A68927807F10A0167
:102B300010469847F8601CE07B68D3F8E8355B697D
:102B40007A68927807F10A0110469847F86010E019
:102B50007B68D3F8E8359B697A68927807F10A01B7
:102B600010469847F86004E03968786800F014FA75
:102B700025E00FE03968786800F00EFA1FE0396848
:102B8000786800F009FA1AE03968786800F004FA09
:102B900015E000BF7B89002B11D03B68DB88002B40
:102BA0000DD03B68DA887B89934228BF13469BB2DD
:102BB0007B817B891A46F968786801F0D5FA10376D
:102BC000BD4680BD80B584B000AF786039603B6899
:102BD0009B88002B2CD13B68DB88002B28D13B68DD
:102BE0005B88DBB203F07F03FB737B6893F81231E1
:102BF000032B04D13968786800F0CEF91CE07B68BB
:102C0000FA7B83F81321FB7B1946786801F08EFA72
:102C1000786801F0F1FAFB7B002B04D07B6802227C
:102C200083F8122108E07B68012283F8122103E077
:102C30003968786800F0B0F900BF1037BD4680BD34
:102C400080B582B000AF786039603B685B88DAB2EB
:102C5000374B1A70364B1B78012B04D939687868CA
:102C600000F09AF95FE07B6893F81231022B02D0F2
:102C7000032B1BD052E02E4B1B78002B12D02C4B79
:102C80001A787B6883F810217B68032283F812216D
:102C9000274B1B7819467868FFF738F8786801F0F9
:102CA000ABFA40E0786801F0A7FA3CE0204B1B78D3
:102CB000002B12D17B68022283F812211C4B1A7858
:102CC0007B6883F810211A4B1B7819467868FFF748
:102CD00035F8786801F090FA25E07B6893F81021C8
:102CE000134B1B789A4215D07B6893F81031194624
:102CF0007868FFF723F80E4B1A787B6883F8102169
:102D00000B4B1B7819467868FFF700F8786801F0DC
:102D100073FA08E0786801F06FFA04E039687868BF
:102D200000F03AF900BF00BF0837BD4680BD00BFC4
:102D3000A401002080B582B000AF786039603B68A4
:102D4000DB88012B04D03968786800F025F91BE096
:102D50007B6893F81231022B02D0032B06D00EE0D1
:102D600001220B49786801F0FFF90DE07B6803F55B
:102D7000887301221946786801F0F6F904E0396891
:102D8000786800F009F900BF00BF0837BD4680BD74
:102D90009C01002080B582B000AF786039607B680C
:102DA00093F81231023B012B11D87B68D3F8143110
:102DB000002B03D00A4B03221A6002E0084B0122C9
:102DC0001A6001220649786801F0CEF904E03968FA
:102DD000786800F0E1F800BF00BF0837BD4680BD4D
:102DE000A001002080B584B000AF78603960002376
:102DF000FB733B685B88012B0ED17B680122C3F813
:102E000014217B68D3F8E0359B6839687868984767
:102E1000786801F0F1F948E03B685B88022B44D107
:102E20003B689B88DBB2002B3FD17B681B695B68EA
:102E3000BB603B689B881B0A9BB2FB73FB7B013B1F
:102E4000042B2BD801A252F823F000BF612E0008FA
:102E50006D2E0008792E0008852E0008912E00089E
:102E60003B7A012262F306133B7217E03B7A02229F
:102E700062F306133B7211E03B7A032262F30613FE
:102E80003B720BE03B7A042262F306133B7205E0CF
:102E90003B7A052262F306133B7200BF7B681B6915
:102EA000BA685A60786801F0A7F900BF1037BD46CC
:102EB00080BD00BF80B582B000AF786039607B68AC
:102EC00093F81231023B012B12D83B685B88012B2F
:102ED00013D17B680022C3F814217B68D3F8E03556
:102EE0009B68396878689847786801F085F904E04C
:102EF0003968786800F050F800E000BF00BF08377C
:102F0000BD4680BD80B483B000AF786039607B6817
:102F100093F8C8253B681A707B6893F8C9253B680D
:102F20005A707B6893F8CA359AB27B6893F8CB35B0
:102F30009BB21B029BB213449AB23B685A807B68D7
:102F400093F8CC359AB27B6893F8CD359BB21B02CF
:102F50009BB213449AB23B689A807B6893F8CE3553
:102F60009AB27B6893F8CF359BB21B029BB2134495
:102F70009AB23B68DA803B68DB881A467B68C3F804
:102F80003C217B68012283F8112100BF0C37BD462C
:102F90005DF8047B704700BF80B582B000AF7860F9
:102FA00039603B681B785BB2002B04DA80217868BB
:102FB00001F02AF80CE03B68DB88002B04D180216B
:102FC000786801F021F803E00021786801F01CF82E
:102FD0007868FEF741FA00BF0837BD4680BD00BFE4
:102FE00080B586B000AFF860B9607A600023FB75E9
:102FF000FB68002B33D0F86800F036F80346013345
:103000009BB25B009AB27B681A80FB7D5A1CFA75F2
:103010001A46BB6813447A681288D2B21A70FB7DD4
:103020005A1CFA751A46BB68134403221A7012E040
:10303000FB7D5A1CFA751A46BB681A44FB68591C7A
:10304000F9601B781370FB7D5A1CFA751A46BB6831
:10305000134400221A70FB681B78002BE8D100BFD4
:103060001837BD4680BD00BF80B485B000AF786022
:103070000023FB7305E0FB7B0133FB737B680133AB
:103080007B607B681B78002BF5D1FB7B18461437DF
:10309000BD465DF8047B704780B586B000AF7860B0
:1030A00000237B617868FDF70DFC0346002B00F0E0
:1030B0009C807868FDF718FC03463B613B69002B58
:1030C00001D1002392E0BB7C03F00803DBB2002BAC
:1030D00006D0786800F012FA02467B6913437B61E0
:1030E000BB7C03F00403DBB2002B06D0786800F051
:1030F0000FF902467B6913437B613B7C03F00203BB
:10310000DBB2002B09D00023FB603B7B43F00203C2
:103110003B737B68DB68FA685A61FB7C23F07F03B2
:10312000DBB2002B06D0786800F064F802467B69B9
:1031300013437B617B7C03F00803DBB2002B06D0DA
:10314000786800F097F802467B6913437B613B7C0B
:1031500003F00803DBB2002B06D0786800F08AFA8F
:1031600002467B6913437B613B7C03F01003DBB2B7
:10317000002B06D0786800F097FA02467B6913436B
:103180007B617B7C03F01003DBB2002B06D07868F8
:1031900000F07EFB02467B6913437B617B7C03F07E
:1031A0002003DBB2002B06D0786800F00DFC02464D
:1031B0007B6913437B61BB7C03F01003DBB2002B04
:1031C00006D0786800F03CFC02467B6913437B61C3
:1031D000BB7C03F02003DBB2002B06D0786800F044
:1031E00049FC02467B6913437B617B6918461837AB
:1031F000BD4680BD80B586B000AF78607B689B7AA5
:10320000002B11D07B6803F586731B68FB603B7B4A
:103210006FF341033B733B7B6FF300033B737B68AE
:10322000D3F80C31FA681A6000233B613B7C43F011
:1032300001033B747B681B697A68126951683A69BB
:10324000D2430A405A600A4B1B689B6978689847CA
:1032500000237B61FB7D43F08003FB757B68DB68AB
:103260007A695A61012318461837BD4680BD00BFF0
:103270000801002080B586B000AF7860224B1B6843
:103280005B69786898477B681B699B68FB600023D3
:103290007B617B7D43F008037B757B68DB687A6923
:1032A0005A617B689B7A002B29D03B7B03F001039A
:1032B000DBB2002B23D000233B613B7C43F00103B6
:1032C0003B747B68D3F80C317A68D2F80C21116812
:1032D0003A690A431A603B7C43F002033B747B6803
:1032E000D3F80C317A68D2F80C2111683A690A4394
:1032F0001A60064A054B1B6943F00603136101235C
:1033000018461837BD4680BD0801002000ED00E0DA
:1033100080B586B000AF786000233B610023BB60BE
:103320007868FEF783F87861DCE07B6903F00103DD
:10333000002B00F0D1803B69DBB21946786800F0C1
:10334000B3FB0346BB603B7A03F00103DBB2002B07
:1033500032D001223B6902FA03F3FB607B681B69F0
:103360007A681269516BFA68D2430A405A630023A3
:10337000BB603B7A43F001033B727A683B690433DC
:103380009B0013449B68BA689A605B4B1B685B6840
:103390003A69D2B21146786898477B68DB78012B8E
:1033A0000AD13B69002B07D17B6893F81131042BBC
:1033B00002D17868FEF750F83B7A03F00403DBB2E1
:1033C000002B0DD00023BB603B7A43F004033B721B
:1033D0007A683B6904339B0013449B68BA689A601F
:1033E0003B7A03F00803DBB2002B0DD00023BB6057
:1033F0003B7A43F008033B727A683B6904339B00D5
:1034000013449B68BA689A603B7A03F01003DBB2FE
:10341000002B0DD00023BB603B7A43F010033B72BE
:103420007A683B6904339B0013449B68BA689A60CE
:103430003B7A03F02003DBB2002B0DD00023BB60EE
:103440003B7A43F020033B727A683B6904339B006C
:1034500013449B68BA689A603B7A03F04003DBB27E
:10346000002B0DD00023BB603B7A43F040033B723E
:103470007A683B6904339B0013449B68BA689A607E
:103480003B7A03F00203DBB2002B0DD00023BB60BC
:103490003B7A43F002033B727A683B6904339B003A
:1034A00013449B68BA689A603B7A23F07F03DBB2CF
:1034B000002B11D03969786800F078F90023BB60DF
:1034C0003B7A43F080033B727A683B6904339B008C
:1034D00013449B68BA689A603B6901333B617B691E
:1034E0005B087B617B69002B7FF41FAF01231846CB
:1034F0001837BD4680BD00BF0801002080B586B0EA
:1035000000AF786000233B610023FB607868FDF723
:103510005BFF7861A3E07B6903F00103002B00F0FF
:1035200098803B69DBB219467868FDF763FF034674
:10353000FB603B7B03F00103DBB2002B48D0002390
:10354000FB603B7B43F001033B737A683B691433B8
:103550009B0013445B68FA689A607B68DB78012BF8
:103560001FD17A683B6914339B0013445B681B6965
:10357000BB6079683A6913469B001344DB000B4437
:1035800003F55E731B68BA68C2F31202991A786871
:103590003A6913469B001344DB00034403F562734E
:1035A0001960334B1B681B683A69D2B211467868C0
:1035B00098477B68DB78012B0AD13B69002B07D148
:1035C0007B6893F81131052B02D17868FDF744FF31
:1035D0003B7B03F00203DBB2002B0DD00023FB602A
:1035E0003B7B43F002033B737A683B6914339B00D7
:1035F00013445B68FA689A603B7B03F00403DBB218
:10360000002B0DD00023FB603B7B43F004033B7396
:103610007A683B6914339B0013445B68FA689A60CC
:103620003B7B03F00803DBB2002B12D0104B1B686E
:103630009B68786898470023FB603B7B43F0080356
:103640003B737A683B6914339B0013445B68FA68E8
:103650009A603B6901333B617B695B087B617B69F5
:10366000002B7FF458AF012318461837BD4680BDA4
:103670000801002080B584B000AF7860094B1B685A
:10368000DB68786898470023FB603B7B43F00803C6
:103690003B737B68DB68FA685A6101231846103770
:1036A000BD4680BD0801002080B586B000AF7860BF
:1036B00000233B613B7C43F010033B747B68DB6879
:1036C0007A68D26891693A69D2430A409A617B6804
:1036D000DB681B6AFB603B7BC3F30303DBB21A4668
:1036E00013469B001344DB0003F55C737A681344B4
:1036F0007B61BB7BC3F34303DBB2013B052B45D8A6
:1037000001A252F823F000BF8D37000821370008CE
:103710008D3700088D3700088D370008693700089D
:10372000BA8947F6F07313409BB2002B30D07B6907
:10373000D968BB89C3F30A139BB21A467868FCF7B1
:103740000BFE7B69DB68BA89C2F30A1292B21A4493
:103750007B69DA607B699B69BA89C2F30A1292B20B
:103760001A447B699A6113E07B6803F5B963082208
:1037700019467868FCF7F0FD7B699B69BA89C2F34A
:103780000A1292B21A447B699A6102E000BF00E01B
:1037900000BF7B68DB687A68D26891693A690A433E
:1037A0009A61012318461837BD4680BD80B586B0A2
:1037B00000AF7860396000237B610023BB603A680A
:1037C00013469B001344DB0003F58C737A681344A3
:1037D000FB60FB685A69FB689B69D31A7B61FB68D5
:1037E0009A687B699A4202D2FB689B687B617B691D
:1037F00003339B083B617A683B6804339B001344A6
:103800009B689B69BB602EE0FB685A69FB689B69FB
:10381000D31A7B61FB689A687B699A4202D2FB6883
:103820009B687B617B6903339B083B61FB68D968BC
:103830003B68DAB27B699BB27868FCF751FDFB68A4
:10384000DA687B691A44FB68DA60FB689A697B690D
:103850001A44FB689A617A683B6804339B001344FE
:103860009B689B69BB603B891A463B699A4209D9B0
:10387000FB689A69FB685B699A4203D2FB685B69E3
:10388000002BC1D1012318461837BD4680BD00BFAB
:1038900080B58AB000AF786000233B6100233B62B3
:1038A0000023FB610023BB6100237B610023FB60DD
:1038B0003B7C43F001033B747B681B697A681269A7
:1038C00051683A69D2430A405A6000217868FCF78F
:1038D0004FFF00237B6212E07A687B6A04339B000F
:1038E00013449B68FF229A607A687B6A14339B00BA
:1038F00013445B68FF229A607B6A01337B627B68BA
:103900005B781A467B6A9A42E6D87B681B694FF05F
:10391000FF329A6101233B8401237B847B681B690E
:103920003A6ADA613B7F43F008033B773B7F43F021
:1039300001033B773B7F43F004033B773B7F43F03E
:1039400002033B777B681B69FA695A613B7E43F04F
:1039500001033B763B7E43F008033B763B7E43F01E
:1039600002033B763B7E43F004033B763B7E43F011
:1039700020033B767B681B69BA691A617B681B6907
:103980001B687B61BB8A6FF30A13BB827B681B6970
:103990007A691A607868FDF75FFD0023FB607B7B26
:1039A00043F010037B737B68DB68FA685A61054B50
:1039B0001B681B6978689847012318462837BD465D
:1039C00080BD00BF0801002080B584B000AF7860E2
:1039D0007868FDF75FF97B68DB68DB68BB60786857
:1039E000FDF734F90346032B0CD17B6800229A7053
:1039F0007B684FF400729A807B7A092262F3850318
:103A00007B720AE07B6801229A707B6840229A8070
:103A10007B7A052262F385037B727B68DB68BA6878
:103A2000DA600023FB607B7B43F020037B737B68C1
:103A3000DB68FA685A61012318461037BD4680BD1D
:103A400080B584B000AF78600023FB60084B1B6832
:103A5000DB6978689847BB7B43F01003BB737B68D6
:103A6000DB68FA685A61012318461037BD4680BDED
:103A70000801002080B584B000AF78600023FB60AF
:103A8000084B1B681B6A78689847BB7B43F0200390
:103A9000BB737B68DB68FA685A61012318461037EC
:103AA000BD4680BD0801002080B487B000AF7860BB
:103AB0000B46FB707B681B691B697B617B681B691C
:103AC0005B6B3B61FB783A6922FA03F3DB01DBB203
:103AD0007A6913437B61FB787A6804339B00134453
:103AE0009B689A687B691340FB60FB6818461C372B
:103AF000BD465DF8047B704780B485B000AF786048
:103B00000023FB60344BFB607B689B79002B4FD01C
:103B10003149314B1A687B681B68DB4313400B60EB
:103B20002D492D4B5A687B681B68DB4313404B6063
:103B30007B681B791A46FB681344FB60FB68FA68D4
:103B400011687A6812680A431A602349224B9A68FE
:103B50007B681B68DB4313408B601F491E4BDA6890
:103B60007B681B68DB431340CB607B685B79102B61
:103B70000ED11949184B9A687B681B6813438B60F8
:103B80001549154BDA687B681B681343CB601DE051
:103B9000114BFB607B685B791A46FB681344FB6042
:103BA000FB68FA6811687A6812680A431A600DE0C7
:103BB0007B681B791A46FB681344FB60FB68FA6854
:103BC00011687A681268D2430A401A6000BF14373D
:103BD000BD465DF8047B7047003C014080B483B073
:103BE00000AF7860044A7B68536100BF0C37BD4664
:103BF0005DF8047B704700BF003C014080B483B097
:103C000000AF7860064A7B6843F0BF6343F400333B
:103C1000D36000BF0C37BD465DF8047B704700BF22
:103C200000ED00E080B485B000AF78600023FB7346
:103C30000023BB730F237B737B68DB78002B38D0AA
:103C4000274BDB68DB4303F4E0631B0AFB73FB7B5E
:103C5000C3F10403BB737A7BFB7B42FA03F37B73F0
:103C60007B685B781A46BB7B02FA03F3FB737B68C5
:103C70009A787B7B1340DAB2FB7B1343FB73FB7BAD
:103C80001B01FB73174A7B681B781344FA7B83F88C
:103C90000023144A7B681B785B09DBB218467B68FB
:103CA0001B7803F01F03012101FA03F342F82030CF
:103CB0000FE00C497B681B785B09DBB218467B6818
:103CC0001B7803F01F0301229A4000F1200341F802
:103CD000232000BF1437BD465DF8047B704700BF4A
:103CE00000ED00E000E100E080B584B000AF786056
:103CF0000B46FB70FB7819467868FCF759FB7B682C
:103D0000012283F812217B68002283F8132100230B
:103D1000FB6023E0FA6813469B001344DB0003F5C5
:103D20008C737A681344BB60BB6801225A70FB68CD
:103D3000DAB2BB681A70FB689AB2BB68DA80BB68FB
:103D40000022DA70BB6840229A60BB680022DA6009
:103D5000BB6800225A61FB680133FB607B685B78BB
:103D60001A46FB689A42D5D80023FB6023E0FA6824
:103D700013469B001344DB0003F55C737A6813441D
:103D8000BB60BB6800225A70FB68DAB2BB681A706D
:103D9000FB689AB2BB68DA80BB680022DA70BB6845
:103DA00040229A60BB680022DA60BB6800225A6138
:103DB000FB680133FB607B685B781A46FB689A42BC
:103DC000D5D87868FCF7B8FC7868FCF7ABFB002125
:103DD0007868FCF737FD7868FCF7BAFD7868FCF77F
:103DE0008FFC00BF1037BD4680BD00BF80B584B0DA
:103DF00000AF7860084611461A460346FB700B4632
:103E00003B801346BB7097F90330002B0CDAFB782C
:103E100003F07F0213469B001344DB0003F58C7311
:103E20007A681344FB600BE0FB7803F07F021346D3
:103E30009B001344DB0003F55C737A681344FB605A
:103E4000FB7803F07F03DAB2FB681A7097F903304E
:103E5000DBB2DB09DBB21A46FB685A703A88FB68B2
:103E60009A60FB68BA78DA70FB685B78002B04D044
:103E7000FB681B789AB2FB68DA80BB78022B02D110
:103E8000FB6800221A71F9687868FCF73FFF00238D
:103E900018461037BD4680BD80B584B000AF78604D
:103EA0000B46FB7097F90330002B0CDAFB7803F01C
:103EB0007F0213469B001344DB0003F58C737A6882
:103EC0001344FB600BE0FB7803F07F0213469B007A
:103ED0001344DB0003F55C737A681344FB60FB78E2
:103EE00003F07F03DAB2FB681A7097F90330DBB294
:103EF000DB09DBB21A46FB685A70F9687868FCF790
:103F000073FF002318461037BD4680BD80B586B0CC
:103F100000AFF8607A601A460B46FB7213463B818D
:103F2000FB7A03F07F0213469B001344DB0003F58A
:103F30005C73FA6813447B617B697A68DA603A895A
:103F40007B695A617B6900229A617B6900225A7001
:103F5000FB7A03F07F03DAB27B691A70FB68DB78C7
:103F6000012B02D17A687B691A617B691B78002B6F
:103F700004D17969F868FDF7BDF803E07969F8685C
:103F8000FCF778FF002318461837BD4680BD00BFF8
:103F900080B586B000AFF8607A603B600B46FB727C
:103FA000FB7A03F07F0213469B001344DB0003F50A
:103FB0008C73FA6813447B617B6901225A70FB7A27
:103FC00003F07F03DAB27B691A707B697A68DA6082
:103FD0007A687B691A617B6900229A617B693A6819
:103FE0005A617B691B78002B04D17969F868FDF769
:103FF00081F803E07969F868FCF73CFF0023184674
:104000001837BD4680BD00BF80B584B000AF786072
:104010000B46FB7097F90330002B0CDAFB7803F0AA
:104020007F0213469B001344DB0003F58C737A6810
:104030001344FB6009E0FA7813469B001344DB004D
:1040400003F55C737A681344FB60FB6801229A7085
:10405000FB7803F07F03DAB2FB681A7097F903303C
:10406000DBB2DB09DBB21A46FB685A70F968786884
:10407000FDF72AF9002318461037BD4680BD00BF62
:1040800080B584B000AF78600B46FB7097F90330C1
:10409000002B0CDAFB7803F07F0213469B001344DD
:1040A000DB0003F58C737A681344FB6009E0FA784F
:1040B00013469B001344DB0003F55C737A681344DA
:1040C000FB60FB6800229A70FB7803F07F03DAB292
:1040D000FB681A7097F90330DBB2DB09DBB21A46D2
:1040E000FB685A70F9687868FDF732F900231846C2
:1040F0001037BD4680BD00BF80B582B000AF78608C
:104100000B46FB7097F90330002B07DAFB7803F0BE
:104110007F0319467868FCF72BFB02E07868FCF710
:1041200061FB002318460837BD4680BD80B485B0CA
:1041300000AF78600B46FB700023FB60FB7803F058
:104140007F03DAB2BB8962F30A13BB817B681B6908
:104150007A6812691168FA680A431A6000BF143756
:10416000BD465DF8047B704780B586B000AFF8604F
:10417000B9601346FB800023FB75FA88FB68C3F81F
:104180003821FA88FB68C3F83421FB68022283F8DF
:104190001121FB88BA680021F868FFF7F9FEFB7D62
:1041A00018461837BD4680BD80B586B000AFF860B0
:1041B000B9601346FB800023FB75FB88BA680021B9
:1041C000F868FFF7E5FEFB7D18461837BD4680BD51
:1041D00080B586B000AFF860B9601346FB8000235D
:1041E000FB75FB88BA680021F868FFF78FFEFB7D3E
:1041F00018461837BD4680BD80B584B000AF7860E2
:104200000023FB737B68042283F811210023002222
:1042100000217868FFF7BCFE7868FDF71DF9FB7B8D
:1042200018461037BD4680BD80B584B000AF7860B9
:104230000023FB737B68052283F8112100230022F1
:1042400000217868FFF762FE7868FDF705F9FB7BCF
:1042500018461037BD4680BD80B483B000AF78608B
:104260000B46FB70FB78002B08D07B681B889BB249
:1042700043F001039AB27B681A8007E07B681B88D1
:104280009BB223F001039AB27B681A8000BF0C37FF
:10429000BD465DF8047B704780B483B000AF7860A2
:1042A0000B467B8013467B707B78002B08D07B68A5
:1042B0009B899AB27B8813439AB27B689A8109E002
:1042C0007B689B899AB27B88DB439BB213409AB28E
:1042D0007B689A8100BF0C37BD465DF8047B704750
:1042E00000100020004000800800000008000000CE
:1042F00008000000080000000100000001000000AC
:1043000001000000000000000000000006000000A6
:1043100048494420492F4F20696E204853204D6F53
:104320006465000048494420492F4F20696E2046AB
:1043300053204D6F6465000053544D6963726F657F
:104340006C656374726F6E69637300003030303077
:104350003030303030313144000000003030303007
:1043600030303030303131450000000048494420C1
:10437000436F6E666967000048494420496E746562
:0643800072666163650036
:1043860021150008311500084915000859150008BF
:10439600691500080000000000000000000C024043
:1043A600000C0240000C0240000C024000000240DB
:1043B6004517000885170008AD1700080000000023
:1043C600000000003519000855190008000000001B
:1043D6000000000000000000111900080902290071
:1043E600010100E032090400000203000000092177
:1043F60000020001222E00070581030A00010705BD
:1044060001030A00010000000600FF0901A1018561
:10441600010901150026FF007508950A85010901A5
:10442600910285020902150026FF007508950A8586
:104436000209028102C00000000000000000000026
:104446000000000000000000000000000000000066
:10445600000000000000000000000000851A0008AF
:10446600511B0008191A0008E11C0008551C000819
:10447600BD1C0008991C0008651D0008851D000864
:104486000000000000000000DC0000209921000868
:10449600BD21000821220008E12100084922000868
:1044A60089220008C522000812010002000000400F
:1044B60077042056000201020301000004030904E8
:0400000508000000EF
:00000001FF
